:020000040800F2
:10000000580800206D0100087501000877010008FC
:10001000790100087B0100087D0100080000000054
:100020000000000000000000000000007F01000848
:10003000810100080000000083010008850100081C
:100040008701000887010008870100088701000870
:100050008701000887010008870100088701000860
:100060008701000887010008870100088701000850
:100070008701000887010008870100088701000840
:100080008701000887010008870100088701000830
:100090008701000887010008870100088701000820
:1000A0008701000887010008870100088701000810
:1000B0008701000887010008870100088701000800
:1000C00087010008870100088701000887010008F0
:1000D00087010008870100088701000887010008E0
:1000E00087010008870100088701000800F002F876
:1000F00000F02CF80AA090E8000C82448344AAF196
:100100000107DA4501D100F021F8AFF2090EBAE893
:100110000F0013F0010F18BFFB1A43F0010318473B
:100120007408000084080000002300240025002635
:10013000103A28BF78C1FBD8520728BF30C148BF4A
:100140000B6070471FB51FBD10B510BD00F031F832
:100150001146FFF7F7FF00F027F900F04FF803B45E
:10016000FFF7F2FF03BC00F057F800000948804792
:1001700009480047FEE7FEE7FEE7FEE7FEE7FEE789
:10018000FEE7FEE7FEE7FEE704480549054A064BA1
:100190007047000011030008ED000008580200201D
:1001A0005808002058040020580400207047704769
:1001B0007047754600F02CF8AE4605006946534678
:1001C00020F00700854618B020B5FFF7DDFFBDE839
:1001D00020404FF000064FF000074FF000084FF0AE
:1001E000000B21F00701AC46ACE8C009ACE8C0093F
:1001F000ACE8C009ACE8C0098D46704710B50446AC
:10020000AFF300802046BDE81040FFF7A8BF000014
:1002100000487047F801002001491820ABBEFEE7F6
:1002200026000200704710B500F002F810BD000073
:100230000CB50020019000903348006840F48030F5
:100240003149086000BF3048006800F40030009079
:100250000198401C0190009818B90198B0F5A06F62
:10026000F1D12948006800F4003010B1012000905D
:1002700001E0002000900098012843D12348006845
:1002800040F01000214908600846006820F0030093
:1002900008600846006840F0020008601A4840689C
:1002A000194948600846406848600846406840F47C
:1002B000806048600846406820F47C10486008462A
:1002C000406840F4E81048600846006840F08070DC
:1002D000086000BF0C48006800F000700028F9D0EA
:1002E0000948406820F00300074948600846406814
:1002F00040F00200486000BF0348406800F00C0076
:100300000828F9D10CBD0000001002400020024076
:1003100010B51348006840F0010011490860084614
:100320004068104908400E494860084600680E4978
:1003300008400B4908600846006820F480200860E7
:100340000846406820F4FE0048604FF41F008860B3
:10035000FFF769FF4FF000600449086010BD00001E
:10036000001002400000FFF8FFFFF6FE08ED00E07D
:1003700007484FF0E02148610020886100BF4FF03E
:10038000E020006900F480300028F8D070470000B9
:100390003F19010000B5024602E0FFF7E9FF521ED7
:1003A000002AFAD100BD000010B500F0F7F900F006
:1003B0006BF800F035F80F4800F050F80D4B0EA226
:1003C0001921002000F03EF90A4800F011F94FF41D
:1003D000FA60FFF7DFFF00F023F809A207210220EF
:1003E00000F0D6F80AA20721042000F0D1F800207E
:1003F00010BD000000000020416268696E61760057
:100400004E6F6B69612035313130204C4344000020
:100410002020202050434438353434202020000050
:1004200010B50021084600F099F80B48006840F02C
:10043000020009490860002403E0002000F040F9B0
:10044000641CB4F5FC7FF8DB0348006820F0020070
:100450000149086010BD00000C08014010B50246BB
:1004600000200DE0002108E00023C0EBC00404EBF5
:10047000440402EB84046354491C5429F4DB401CFB
:100480000628EFDB10BD000010B53248806940F04F
:100490000100304988610846806940F004008861A5
:1004A0002D48006840F003002B49086008460068AA
:1004B00020F00C00086028480C30006820F0010093
:1004C00025490C3108600A20FFF764FF22480C30F0
:1004D000006840F0010020490C3108601E480068A7
:1004E00040F030001C4908600846006820F0C00059
:1004F000086019480C30006820F0020016490C31E1
:1005000008601548006840F44070134908600846C8
:10051000006820F4406008600F480C30006840F02C
:1005200004000D490C31086000F0E4F8212000F0CF
:10053000C7F8062000F0C4F8172000F0C1F8972093
:1005400000F0BEF8202000F0BBF80C2000F0B8F856
:1005500010BD0000001002400008014070B50446C4
:100560000D460A48006820F0020008490860202073
:1005700000F0A6F8E1B241F0400000F0A1F8E9B2C5
:1005800041F0800000F09CF870BD00000C080140B4
:100590002DE9F04107468846144600254146384675
:1005A000FFF7DCFF1048006840F002000E490860C9
:1005B0000EE0002609E0615D203901EB81010B4A64
:1005C0001144885D00F07CF8761C052EF3DB6D1C71
:1005D000605D0028EDD10448006820F00200024967
:1005E0000860BDE8F08100000C080140B407000875
:1005F00070B50646FFF714FF00210846FFF7AEFF6F
:100600000F48006840F002000D49086000240EE029
:10061000002509E0C4EBC40101EB410106EB8101B7
:10062000485D00F04DF86D1C542DF3DB641C062C66
:10063000EEDB0348006820F002000149086070BD4D
:100640000C0801402DE9F04106461F460D46304694
:1006500000232BE0052800DD2DE0002422E012F825
:1006600003C0ACF1200C0CEB8C0CDFF85080C444C0
:100670001CF804C0C0EBC00808EB480807EB88086A
:1006800008F805C005F1010CBCF1530F08DD00F1BD
:10069000010CBCF1050F00DD06E0401C0D4600E03A
:1006A0006D1C641C052CDADB00BF5B1C12F803C058
:1006B000BCF1000FCED100BFBDE8F081B407000847
:1006C0000A49096821F01001084A11600849888127
:1006D00000BF0749098901F080010029F9D10349C8
:1006E000096841F01001014A116070470C0801408F
:1006F000003001402648806940F4805024498861D8
:100700002448006840F440302249086008460068E8
:1007100020F4402008600846006840F4300008607B
:100720000846006820F4800008600846006820F051
:10073000E06008600846006840F000600860084615
:10074000006840F0304008600846006820F08040B3
:1007500008601148008840F004000F4908800846EE
:10076000008840F0380008800846808840F0040087
:1007700088800846008840F04000088005480C301A
:10078000006840F0100003490C3108607047000019
:1007900000100240000801400030014000204FF0EE
:1007A000E02108616FF07F404861002088610520EA
:1007B00008617047000000000000005F00000007B3
:1007C000000700147F147F14242A7F2A12231308A1
:1007D000646236495522500005030000001C224186
:1007E000000041221C0014083E081408083E0808B6
:1007F0000050300000080808080800606000002071
:10080000100804023E5149453E00427F40004261CB
:100810005149462141454B311814127F1027454557
:1008200045393C4A4949300171090503364949496E
:1008300036064949291E00363600000056360000AB
:100840000814224100141414141400412214080244
:1008500001510906324979413E7E1111117E7F49CD
:100860004949363E414141227F4141221C7F49494D
:1008700049417F090909013E4149497A7F08080831
:100880007F00417F41002040413F017F0814224109
:100890007F404040407F020C027F7F0408107F3E73
:1008A0004141413E7F090909063E4151215E7F09D0
:1008B000192946464949493101017F01013F40401C
:1008C000403F1F2040201F3F4038403F6314081422
:1008D0006307087008076151494543007F414100A3
:1008E00002040810200041417F000402010204407C
:1008F00040404040000102040020545454787F4896
:100900004444383844444420384444487F3854549C
:100910005418087E0901020C5252523E7F0804040A
:100920007800447D40002040443D007F1028440072
:1009300000417F40007C041804787C080404783867
:10094000444444387C14141408081414187C7C089B
:100950000404084854545420043F4440203C404080
:10096000207C1C2040201C3C4030403C4428102867
:10097000440C5050503C4464544C440008364100F0
:1009800000007F00000041360800100808100878B9
:1009900046414678A40900080000002058080000DD
:0409A0002801000822
:040000050800016D81
:00000001FF
